:020000040800F2
:1000000000000320FD1D0008511B0008531B0008C1
:10001000551B0008571B0008591B00080000000072
:100020000000000000000000000000005B1B000852
:100030005D1B0008000000005F1B0008611B00083A
:100040004D1E00084D1E00084D1E00084D1E0008E4
:100050004D1E00084D1E00084D1E00084D1E0008D4
:100060004D1E00084D1E00084D1E00084D1E0008C4
:100070004D1E00084D1E00084D1E00084D1E0008B4
:100080004D1E00084D1E00084D1E00084D1E0008A4
:100090004D1E00084D1E00084D1E0008691B00087B
:1000A0004D1E00084D1E00084D1E00084D1E000884
:1000B0004D1E00084D1E00084D1E00084D1E000874
:1000C0004D1E00084D1E00084D1E00084D1E000864
:1000D0004D1E00084D1E00084D1E00084D1E000854
:1000E0004D1E00084D1E00084D1E00084D1E000844
:1000F0004D1E00084D1E00084D1E00084D1E000834
:100100004D1E00084D1E00084D1E00084D1E000823
:100110004D1E00084D1E00084D1E00084D1E000813
:100120004D1E00084D1E00084D1E00084D1E000803
:100130004D1E00084D1E00084D1E00084D1E0008F3
:100140004D1E00084D1E00084D1E00084D1E0008E3
:100150004D1E00084D1E00084D1E00084D1E0008D3
:100160004D1E00084D1E00084D1E00084D1E0008C3
:100170004D1E00084D1E00084D1E00080000000026
:100180004D1E00084D1E00084D1E00084D1E0008A3
:100190004D1E00084D1E00084D1E00084D1E000893
:0C01A0004D1E00084D1E00084D1E0008FA
:1001C00010B5054C237833B9044B13B10448AFF391
:1001D00000800123237010BDC00900200000000032
:1001E000B09E000808B5034B1BB103490348AFF3A9
:1001F000008008BD00000000C4090020B09E000877
:1002000081F0004102E000BF83F0004330B54FEAC7
:1002100041044FEA430594EA050F08BF90EA020F34
:100220001FBF54EA000C55EA020C7FEA645C7FEAC7
:10023000655C00F0E2804FEA5454D4EB5555B8BFEA
:100240006D420CDD2C4480EA020281EA030382EA5B
:10025000000083EA010180EA020281EA0303362DED
:1002600088BF30BD11F0004F4FEA01314FF4801CC0
:100270004CEA113102D0404261EB410113F0004FD2
:100280004FEA03334CEA133302D0524263EB430389
:1002900094EA050F00F0A780A4F10104D5F1200E27
:1002A0000DDB02FA0EFC22FA05F2801841F1000182
:1002B00003FA0EF2801843FA05F359410EE0A5F156
:1002C00020050EF1200E012A03FA0EFC28BF4CF087
:1002D000020C43FA05F3C01851EBE37101F000453D
:1002E00007D54FF0000EDCF1000C7EEB00006EEB4A
:1002F0000101B1F5801F1BD3B1F5001F0CD34908D4
:100300005FEA30004FEA3C0C04F101044FEA44522A
:1003100012F5800F80F09A80BCF1004F08BF5FEAB1
:10032000500C50F1000041EB045141EA050130BD91
:100330005FEA4C0C404141EB0101013C28BFB1F5A3
:10034000801FE9D291F0000F04BF01460020B1FAEE
:1003500081F308BF2033A3F10B03B3F120020CDAC1
:100360000C3208DD02F1140CC2F10C0201FA0CF09F
:1003700021FA02F10CE002F11402D8BFC2F1200C04
:1003800001FA02F120FA0CFCDCBF41EA0C019040BA
:10039000E41AA2BF01EB0451294330BD6FEA040403
:1003A0001F3C1CDA0C340EDC04F11404C4F12002EE
:1003B00020FA04F001FA02F340EA030021FA04F300
:1003C00045EA030130BDC4F10C04C4F1200220FA57
:1003D00002F001FA04F340EA0300294630BD21FA95
:1003E00004F0294630BD94F0000F83F4801306BF5B
:1003F00081F480110134013D4EE77FEA645C18BF4F
:100400007FEA655C29D094EA050F08BF90EA020FE5
:1004100005D054EA000C04BF1946104630BD91EADD
:10042000030F1EBF0021002030BD5FEA545C05D1E0
:100430004000494128BF41F0004130BD14F580041F
:100440003CBF01F5801130BD01F0004545F0FE4193
:1004500041F470014FF0000030BD7FEA645C1ABFC8
:10046000194610467FEA655C1CBF0B46024650EAFF
:10047000013406BF52EA033591EA030F41F400212B
:1004800030BD00BF90F0000F04BF0021704730B5B1
:100490004FF4806404F132044FF000054FF0000186
:1004A00050E700BF90F0000F04BF0021704730B547
:1004B0004FF4806404F1320410F0004548BF40421C
:1004C0004FF000013EE700BF42004FEAE2014FEA71
:1004D00031014FEA02701FBF12F07F4393F07F4F4C
:1004E00081F06051704732F07F4208BF704793F04F
:1004F0007F4F04BF41F40021704730B54FF4607462
:1005000001F0004521F000411CE700BF50EA010264
:1005100008BF704730B54FF000050AE050EA01020D
:1005200008BF704730B511F0004502D5404261EB7D
:1005300041014FF4806404F132045FEA915C3FF4BE
:10054000D8AE4FF003025FEADC0C18BF03325FEA5B
:10055000DC0C18BF033202EBDC02C2F1200300FA0C
:1005600003FC20FA02F001FA03FE40EA0E0021FA31
:1005700002F11444BDE600BF70B54FF0FF0C4CF41F
:10058000E06C1CEA11541DBF1CEA135594EA0C0FD1
:1005900095EA0C0F00F0DEF82C4481EA030621EA0C
:1005A0004C5123EA4C5350EA013518BF52EA033547
:1005B00041F4801143F4801338D0A0FB02CE4FF0F9
:1005C0000005E1FB02E506F00042E0FB03E54FF029
:1005D0000006E1FB03569CF0000F18BF4EF0010E21
:1005E000A4F1FF04B6F5007F64F5407404D25FEA1D
:1005F0004E0E6D4146EB060642EAC62141EA5551D0
:100600004FEAC52040EA5E504FEACE2EB4F1FD0C11
:1006100088BFBCF5E06F1ED8BEF1004F08BF5FEA8F
:10062000500E50F1000041EB045170BD06F0004641
:1006300046EA010140EA020081EA0301B4EB5C04EE
:10064000C2BFD4EB0C0541EA045170BD41F48011E6
:100650004FF0000E013C00F3AB8014F1360FDEBF0B
:10066000002001F0004170BDC4F10004203C35DAE7
:100670000C341BDC04F11404C4F1200500FA05F36A
:1006800020FA04F001FA05F240EA020001F000420B
:1006900021F0004110EBD37021FA04F642EB060181
:1006A0005EEA430E08BF20EAD37070BDC4F10C04AB
:1006B000C4F1200500FA04F320FA05F001FA04F26F
:1006C00040EA020001F0004110EBD37041F100015B
:1006D0005EEA430E08BF20EAD37070BDC4F1200566
:1006E00000FA05F24EEA020E20FA04F301FA05F2CE
:1006F00043EA020321FA04F001F0004121FA04F276
:1007000020EA020000EBD3705EEA430E08BF20EA45
:10071000D37070BD94F0000F0FD101F0004640007F
:1007200041EB010111F4801F08BF013CF7D041EA01
:10073000060195F0000F18BF704703F00046520005
:1007400043EB030313F4801F08BF013DF7D043EAD6
:100750000603704794EA0C0F0CEA135518BF95EA8C
:100760000C0F0CD050EA410618BF52EA4306D1D113
:1007700081EA030101F000414FF0000070BD50EA32
:10078000410606BF1046194652EA430619D094EABC
:100790000C0F02D150EA013613D195EA0C0F05D1A6
:1007A00052EA03361CBF104619460AD181EA0301FA
:1007B00001F0004141F0FE4141F470014FF00000B2
:1007C00070BD41F0FE4141F4780170BD70B54FF04D
:1007D000FF0C4CF4E06C1CEA11541DBF1CEA1355CD
:1007E00094EA0C0F95EA0C0F00F0A7F8A4EB0504AF
:1007F00081EA030E52EA03354FEA013100F08880A6
:100800004FEA03334FF0805545EA131343EA12636E
:100810004FEA022245EA111545EA10654FEA002623
:100820000EF000419D4208BF964244F1FD0404F5DC
:10083000407402D25B084FEA3202B61A65EB030538
:100840005B084FEA32024FF480104FF4002CB6EBF5
:10085000020E75EB030E22BFB61A754640EA0C0075
:100860005B084FEA3202B6EB020E75EB030E22BFB5
:10087000B61A754640EA5C005B084FEA3202B6EBF6
:10088000020E75EB030E22BFB61A754640EA9C00B5
:100890005B084FEA3202B6EB020E75EB030E22BF85
:1008A000B61A754640EADC0055EA060E18D04FEA43
:1008B000051545EA16754FEA06164FEAC30343EAE3
:1008C00052734FEAC2025FEA1C1CC0D111F4801FB0
:1008D0000BD141EA00014FF000004FF0004CB6E7A9
:1008E00011F4801F04BF01430020B4F1FD0C88BF48
:1008F000BCF5E06F3FF6AFAEB5EB030C04BFB6EB53
:10090000020C5FEA500C50F1000041EB045170BD45
:100910000EF0004E4EEA113114EB5C04C2BFD4EB72
:100920000C0541EA045170BD41F480114FF0000EF6
:10093000013C90E645EA060E8DE60CEA135594EA72
:100940000C0F08BF95EA0C0F3FF43BAF94EA0C0F75
:100950000AD150EA01347FF434AF95EA0C0F7FF4EA
:1009600025AF104619462CE795EA0C0F06D152EA3E
:1009700003353FF4FDAE1046194622E750EA410622
:1009800018BF52EA43067FF4C5AE50EA41047FF433
:100990000DAF52EA43057FF4EBAE12E74A0011D2E5
:1009A00012F5001211D20DD56FF47873B3EB6252C9
:1009B0000ED44FEAC12343F0004343EA505323FAD5
:1009C00002F070474FF00000704750EA013002D14A
:1009D0004FF0FF3070474FF0000070474FEA410280
:1009E000B2F1E04324BFB3F5001CDCF1FE5C0DD98D
:1009F00001F0004C4FEAC0024CEA5070B2F1004FD7
:100A000040EB830008BF20F00100704711F0804FD9
:100A100021D113F13872BCBF01F00040704741F49E
:100A200080114FEA5252C2F11802C2F1200C10FAA2
:100A30000CF320FA02F018BF40F001004FEAC12386
:100A40004FEAD32303FA0CFC40EA0C0023FA02F32A
:100A50004FEA4303CCE77FEA625307D150EA013300
:100A60001EBF4FF0FE4040F44000704701F00040D0
:100A700040F0FE4040F40000704700BF80F00040AE
:100A800002E000BF81F0004142001FBF5FEA410366
:100A900092EA030F7FEA226C7FEA236C6AD04FEA66
:100AA0001262D2EB1363C1BFD218414048404140AB
:100AB000B8BF5B42192B88BF704710F0004F40F45D
:100AC000000020F07F4018BF404211F0004F41F479
:100AD000000121F07F4118BF494292EA030F3FD045
:100AE000A2F1010241FA03FC10EB0C00C3F1200358
:100AF00001FA03F100F0004302D5494260EB4000E7
:100B0000B0F5000F13D3B0F1807F06D340084FEA51
:100B1000310102F10102FE2A51D2B1F1004F40EB46
:100B2000C25008BF20F0010040EA030070474900AE
:100B300040EB0000013A28BFB0F5000FEDD2B0FA4B
:100B400080FCACF1080CB2EB0C0200FA0CF0AABF6E
:100B500000EBC25052421843BCBFD040184370470C
:100B600092F0000F81F4000106BF80F40000013212
:100B7000013BB5E74FEA41037FEA226C18BF7FEAE9
:100B8000236C21D092EA030F04D092F0000F08BF2B
:100B90000846704790EA010F1CBF0020704712F012
:100BA0007F4F04D1400028BF40F00040704712F151
:100BB00000723CBF00F50000704700F0004343F0B6
:100BC000FE4040F4000070477FEA226216BF0846EC
:100BD0007FEA23630146420206BF5FEA412390EAAF
:100BE000010F40F4800070474FF0000304E000BFA5
:100BF00010F0004348BF40425FEA000C08BF704756
:100C000043F0964301464FF000001CE050EA010219
:100C100008BF70474FF000030AE000BF50EA01022E
:100C200008BF704711F0004302D5404261EB41011B
:100C30005FEA010C02BF84460146002043F0B64340
:100C400008BFA3F18053A3F50003BCFA8CF2083A65
:100C5000A3EBC25310DB01FA02FC634400FA02FC6E
:100C6000C2F12002BCF1004F20FA02F243EB020075
:100C700008BF20F00100704702F1200201FA02FCD7
:100C8000C2F1200250EA4C0021FA02F243EB0200CA
:100C900008BF20EADC7070474FF0FF0C1CEAD0520E
:100CA0001EBF1CEAD15392EA0C0F93EA0C0F6FD0CF
:100CB0001A4480EA010C400218BF5FEA41211ED0AD
:100CC0004FF0006343EA501043EA5111A0FB013199
:100CD0000CF00040B1F5000F3EBF490041EAD3716E
:100CE0005B0040EA010062F17F02FD2A1DD8B3F1EA
:100CF000004F40EBC25008BF20F00100704790F059
:100D0000000F0CF0004C08BF49024CEA502040EAAA
:100D100051207F3AC2BFD2F1FF0340EAC250704770
:100D200040F400004FF00003013A5DDC12F1190FAE
:100D3000DCBF00F000407047C2F10002410021FA20
:100D400002F1C2F1200200FA02FC5FEA310040F138
:100D5000000053EA4C0308BF20EADC70704792F0B1
:100D6000000F00F0004C02BF400010F4000F013AE9
:100D7000F9D040EA0C0093F0000F01F0004C02BFE4
:100D8000490011F4000F013BF9D041EA0C018FE753
:100D90000CEAD15392EA0C0F18BF93EA0C0F0AD059
:100DA00030F0004C18BF31F0004CD8D180EA01007F
:100DB00000F00040704790F0000F17BF90F0004F18
:100DC000084691F0000F91F0004F14D092EA0C0FFA
:100DD00001D142020FD193EA0C0F03D14B0218BF8D
:100DE000084608D180EA010000F0004040F0FE40D3
:100DF00040F40000704740F0FE4040F4400070476F
:100E00004FF0FF0C1CEAD0521EBF1CEAD15392EAED
:100E10000C0F93EA0C0F69D0A2EB030280EA010CDD
:100E200049024FEA402037D04FF0805343EA111176
:100E300043EA10130CF000408B4238BF5B0042F1D4
:100E40007D024FF4000C8B4224BF5B1A40EA0C0079
:100E5000B3EB510F24BFA3EB510340EA5C00B3EBAB
:100E6000910F24BFA3EB910340EA9C00B3EBD10F99
:100E700024BFA3EBD10340EADC001B0118BF5FEAEB
:100E80001C1CE0D1FD2A3FF650AF8B4240EBC25014
:100E900008BF20F0010070470CF0004C4CEA5020D5
:100EA0007F32C2BFD2F1FF0340EAC250704740F424
:100EB00000004FF00003013A37E792F0000F00F016
:100EC000004C02BF400010F4000F013AF9D040EA94
:100ED0000C0093F0000F01F0004C02BF490011F428
:100EE000000F013BF9D041EA0C0195E70CEAD15320
:100EF00092EA0C0F08D142027FF47DAF93EA0C0F07
:100F00007FF470AF084676E793EA0C0F04D14B02EA
:100F10003FF44CAF08466EE730F0004C18BF31F09C
:100F2000004CCAD130F000427FF45CAF31F0004396
:100F30007FF43CAF5FE700BF4FF0FF3C06E000BF2F
:100F40004FF0010C02E000BF4FF0010C4DF804CD52
:100F50004FEA40024FEA41037FEA226C18BF7FEA62
:100F6000236C11D001B052EA530C18BF90EA010F64
:100F700058BFB2EB030088BFC81738BF6FEAE170F3
:100F800018BF40F0010070477FEA226C02D15FEA8F
:100F9000402C05D17FEA236CE4D15FEA412CE1D0FB
:100FA0005DF8040B704700BF844608466146FFE7C2
:100FB0000FB5FFF7C9FF002848BF10F1000F0FBDA4
:100FC0004DF808EDFFF7F4FF0CBF012000205DF89D
:100FD00008FB00BF4DF808EDFFF7EAFF34BF012022
:100FE00000205DF808FB00BF4DF808EDFFF7E0FFBB
:100FF00094BF012000205DF808FB00BF4DF808ED0C
:10100000FFF7D2FF94BF012000205DF808FB00BF6E
:101010004DF808EDFFF7C8FF34BF012000205DF850
:1010200008FB00BF42000ED2B2F1FE4F0BD34FF0CF
:101030009E03B3EB126209D44FEA002343F000434E
:1010400023FA02F070474FF00000704712F1610F71
:1010500001D1420202D14FF0FF3070474FF0000043
:10106000704700BF53B94AB9002908BF00281CBF08
:101070004FF0FF314FF0FF3000F074B9ADF1080CC4
:101080006DE904CE00F006F8DDF804E0DDE90223A6
:1010900004B070472DE9F047089E0D460446884687
:1010A000002B4DD18A42944668D9B2FA82F252B1ED
:1010B00001FA02F3C2F1200120FA01F10CFA02FC5C
:1010C00041EA030894404FEA1C45210CB8FBF5FEA9
:1010D0001FFA8CF705FB1E8341EA03430EFB07F161
:1010E00099420BD91CEB03030EF1FF3080F01E81F7
:1010F000994240F21B81AEF1020E63445B1AA4B226
:10110000B3FBF5F005FB103344EA034400FB07F79B
:10111000A7420AD91CEB040400F1FF3380F00881D8
:10112000A74240F2058164440238E41B40EA0E40C5
:1011300000211EB1D4400023C6E90043BDE8F0877A
:101140008B4208D9002E00F0EE800021C6E9000590
:101150000846BDE8F087B3FA83F100294AD1AB42D3
:1011600002D3824200F2F980841A65EB0303012066
:101170009846002EE2D0C6E90048DFE702B9FFDE5C
:10118000B2FA82F2002A40F09180A1EB0C054FEAFE
:101190001C471FFA8CFE0121B5FBF7F307FB135028
:1011A000250C45EA00450EFB03F0A84208D91CEBCC
:1011B000050503F1FF3802D2A84200F2CB80434676
:1011C0002D1AA4B2B5FBF7F007FB105544EA05440D
:1011D0000EFB00FEA64508D91CEB040400F1FF3508
:1011E00002D2A64500F2BB802846A4EB0E0440EADA
:1011F00003409EE7C1F120078B4022FA07FC4CEA2E
:10120000030C20FA07F405FA01F31C43FD404FEAF2
:101210001C4900FA01F3B5FBF9F8200C1FFA8CFE0B
:1012200009FB185540EA054508FB0EF0A84202FAF2
:1012300001F20BD91CEB050508F1FF3A80F088801C
:10124000A84240F28580A8F1020865442D1AA4B294
:10125000B5FBF9F009FB105544EA054500FB0EFE0D
:10126000AE4508D91CEB050500F1FF346CD2AE4544
:101270006AD90238654440EA0840A0FB0294A5EB15
:101280000E05A542C846A64656D353D05EB1B3EB71
:10129000080265EB0E0505FA07F722FA01F3CD40C7
:1012A0001F43C6E900750021BDE8F087C2F12003A5
:1012B00020FA03F10CFA02FC25FA03F395400D43E2
:1012C0004FEA1C471FFA8CFEB3FBF7F107FB113006
:1012D0002B0C43EA004301FB0EF0984204FA02F49F
:1012E00008D91CEB030301F1FF382FD298422DD906
:1012F000023963441B1AADB2B3FBF7F007FB10339E
:1013000045EA034500FB0EF3AB4208D91CEB05058B
:1013100000F1FF3816D2AB4214D902386544ED1AF9
:1013200040EA014138E73146304607E78646E5E6C0
:101330001846FAE64B45A9D2B9EB020864EB0C0E4D
:101340000138A3E74046EAE7204694E74146D1E763
:10135000D0467BE7023B654432E7084609E7644430
:10136000023842E7704700BF0000000000000000A4
:10137000000000000000000000000000000000006D
:1013800090F800F06DE9024520F007016FF0000CC5
:1013900010F0070491F820F040F049804FF000046D
:1013A0006FF00700D1E9002391F840F000F1080048
:1013B00082FA4CF2A4FA8CF283FA4CF3A2FA8CF380
:1013C0004BBBD1E9022382FA4CF200F10800A4FAE7
:1013D0008CF283FA4CF3A2FA8CF3E3B9D1E904233B
:1013E00082FA4CF200F10800A4FA8CF283FA4CF372
:1013F000A2FA8CF37BB9D1E9062301F1200182FA2C
:101400004CF200F10800A4FA8CF283FA4CF3A2FA31
:101410008CF3002BC6D0002A04BF04301A4612BA3F
:10142000B2FA82F2FDE8024500EBD2007047D1E942
:10143000002304F00305C4F100004FEAC50514F0D1
:10144000040F91F840F00CFA05F562EA05021CBFA2
:1014500063EA050362464FF00004A9E700000000BC
:1014600001F0FF01102A2BDB10F0070F08D010F855
:10147000013B013A8B422DD010F0070F42B3F6D159
:10148000F0B441EA012141EA014122F007047FF072
:1014900000070023F0E80256083C85EA010586EAC9
:1014A000010685FA47F5A3FA87F586FA47F6A5FA05
:1014B00087F68EB9EED1F0BC01F0FF0102F0070211
:1014C00032B110F8013B013A83EA010313B1F8D1BC
:1014D0000020704701387047002D06BF354603389D
:1014E000073815F0010F07D1013015F4807F02BFD6
:1014F000013015F4C03F0130F0BC0138704700BF27
:10150000844641EA000313F003036DD1403A41D30E
:1015100051F8043B40F8043B51F8043B40F8043BCD
:1015200051F8043B40F8043B51F8043B40F8043BBD
:1015300051F8043B40F8043B51F8043B40F8043BAD
:1015400051F8043B40F8043B51F8043B40F8043B9D
:1015500051F8043B40F8043B51F8043B40F8043B8D
:1015600051F8043B40F8043B51F8043B40F8043B7D
:1015700051F8043B40F8043B51F8043B40F8043B6D
:1015800051F8043B40F8043B51F8043B40F8043B5D
:10159000403ABDD2303211D351F8043B40F8043BFD
:1015A00051F8043B40F8043B51F8043B40F8043B3D
:1015B00051F8043B40F8043B103AEDD20C3205D30D
:1015C00051F8043B40F8043B043AF9D2043208D005
:1015D000D2071CBF11F8013B00F8013B01D30B8877
:1015E00003806046704700BF082A13D38B078DD055
:1015F00010F003038AD0C3F10403D21ADB071CBF27
:1016000011F8013B00F8013B80D331F8023B20F890
:10161000023B7BE7043AD9D3013A11F8013B00F8C9
:10162000013BF9D20B7803704B7843708B78837051
:10163000604670474FF0FF3C06E000BF4FF0010CE2
:1016400002E000BF4FF0010C4DF804CD4FEA410C11
:101650007FEA6C5C4FEA430C18BF7FEA6C5C1BD0DE
:1016600001B050EA410C0CBF52EA430C91EA030F5F
:1016700002BF90EA020F0020704710F1000F91EABC
:10168000030F58BF994208BF90422CBFD8176FEA8A
:10169000E37040F0010070474FEA410C7FEA6C5C58
:1016A00002D150EA013C07D14FEA430C7FEA6C5C5F
:1016B000D6D152EA033CD3D05DF8040B704700BF8B
:1016C0008446104662468C461946634600E000BFD9
:1016D00001B5FFF7B7FF002848BF10F1000F01BDAB
:1016E0004DF808EDFFF7F4FF0CBF012000205DF876
:1016F00008FB00BF4DF808EDFFF7EAFF34BF0120FB
:1017000000205DF808FB00BF4DF808EDFFF7E0FF93
:1017100094BF012000205DF808FB00BF4DF808EDE4
:10172000FFF7CEFF94BF012000205DF808FB00BF4B
:101730004DF808EDFFF7C4FF34BF012000205DF82D
:1017400008FB00BF4FEA410C7FEA6C5C02D150EA13
:10175000013C0AD14FEA430C7FEA6C5C02D152EAA9
:10176000033C02D14FF0000070474FF0010070477A
:101770004FEA410212F5001215D211D56FF47873B9
:10178000B3EB625212D94FEAC12343F0004343EA5C
:10179000505311F0004F23FA02F018BF4042704737
:1017A0004FF00000704750EA013005D111F00040C1
:1017B00008BF6FF0004070474FF00000704700BF57
:1017C00000B585B00023009301930293039315485D
:1017D000154A02604FF480324260836003610376F1
:1017E00080F82030C362114A8262C3600122C26164
:1017F00080F83030426100F02BFC60B90023009388
:101800000122019202936946064800F04FFD28B973
:1018100005B05DF804FB00F011F9EFE700F00EF9F8
:10182000F6E700BFDC090020002001400100000FA6
:1018300000B589B00023039304930593069307939F
:10184000026803F1804303F590339A4202D009B055
:101850005DF804FB0021019103F58C335A6C42F4CE
:1018600080725A645A6C02F480720192019A029159
:101870001A6B42F001021A631B6B03F0010302931F
:10188000029B012303930323049303A9014800F05F
:1018900051FEDCE7000002402DE9F0478CB0002447
:1018A0000794089409940A940B9401945D4B1A6B65
:1018B00042F010021A631A6B02F010020192019AB0
:1018C00002941A6B42F080021A631A6B02F08002D3
:1018D0000292029A03941A6B42F004021A631A6B82
:1018E00002F004020392039A04941A6B42F001027C
:1018F0001A631A6B02F001020492049A05941A6B9F
:1019000042F002021A631A6B02F002020592059A73
:1019100006941A6B42F040021A631B6B03F04003FB
:101920000693069BDFF8009122460821484600F006
:1019300006FF3E4E22465421304600F000FF3C4F49
:1019400001220221384600F0FAFE22468021384664
:1019500000F0F5FEDFF8DCA0224644F2010150461B
:1019600000F0EDFEDFF8D08022464021404600F036
:10197000E6FE082307930125089509940A9407A910
:10198000484600F0D7FD54230793089509940A941C
:1019900007A9304600F0CEFD8223079308950994ED
:1019A0000A9407A9384600F0C5FD4FF04009CDF86C
:1019B0001C900894099407A9384600F0BBFD202329
:1019C00007930894099407A9304600F0B3FD44F248
:1019D00001030793089509940A9407A9504600F05B
:1019E000A9FDCDF81C90089509940A9407A94046D2
:1019F00000F0A0FD4FF4807307934FF48813089311
:101A00000223099307A9304600F094FD224621469F
:101A1000172000F035FD172000F06AFD0CB0BDE87E
:101A2000F08700BF0038024000100240000802406A
:101A300000000240000402400018024072B6FEE7B7
:101A400000B595B03022002108A802F0BFFA0023AB
:101A5000039304930593069307930193224A116C11
:101A600041F080511164126C02F080520192019A8F
:101A700002931E4A116841F440411160126802F459
:101A800040420292029A0222089201210B911021F7
:101A90000C910E920F9308231093B423119312927A
:101AA0000423139308A800F09DFEB0B900F05CFE7B
:101AB000A8B90F23039302230493002305934FF443
:101AC000A05306934FF480530793052103A801F018
:101AD000D7F830B915B05DF804FBFFF7AFFFFFF79B
:101AE000ADFFFFF7ABFF00BF0038024000700040C1
:101AF00008B500F0D3F9FFF7A3FFFFF7CDFE00F024
:101B0000E5F8FFF75DFE00F095F800F0F9F802F057
:101B1000F9F902F005FAFCE782B0002100910B4BC5
:101B20005A6C42F480425A645A6C02F48042009229
:101B3000009A01911A6C42F080521A641B6C03F0F7
:101B400080530193019B02B0704700BF00380240F0
:101B5000FEE7FEE7FEE7FEE7FEE7704770477047E7
:101B600008B500F0B5F908BD08B54FF4807000F075
:101B7000EDFD08BD0120704708B502F0FDF9162300
:101B800003604FF0FF3008BD08B54FF0FF31FFF79D
:101B9000F3FFFEE770B50C461646002506E0AFF3EE
:101BA0000080214601F8010B01350C46B542F6DBF9
:101BB000304670BD70B50C461646002504E014F89A
:101BC000010BAFF300800135B542F8DB304670BD44
:101BD0004FF0FF3070474FF400534B6000207047C8
:101BE000012070470020704710B503460C4A0D498C
:101BF0000D48006840B10C4800680344521A9342F3
:101C000006D8094A136010BD0748084C0460F2E783
:101C100002F0B2F90C2303604FF0FF30F3E700BF8E
:101C20000000032000040000240A0020F00C002023
:101C30007047000000B587B000230293039304931C
:101C400005930093019315484FF080420260436072
:101C500083604FF0FF32C2600361836101F078F965
:101C600090B94FF48053029302A90C4801F0A8F9EF
:101C700068B90023009301936946084801F020FAEF
:101C800040B907B05DF804FBFFF7D8FEE9E7FFF7BE
:101C9000D5FEEEE7FFF7D2FEF3E700BF280A0020EB
:101CA0000368B3F1804F00D0704782B000230193E6
:101CB000054B1A6C42F001021A641B6C03F001031D
:101CC0000193019B02B070470038024008B50A48F2
:101CD0000A4B03604FF4E133436000238360C36029
:101CE00003610C2242618361C36101F0FBFA00B918
:101CF00008BDFFF7A3FEFBE7700A002000100140BB
:101D000008B50A480A4B03604FF4E13343600023EF
:101D10008360C36003610C2242618361C36101F08F
:101D2000E1FA00B908BDFFF789FEFBE7B40A00201D
:101D30000048004000B58BB000230593069307933D
:101D4000089309930368284A934205D0274A93428F
:101D500026D00BB05DF804FB00210191244B5A6C96
:101D600042F010025A645A6C02F010020192019A79
:101D700002911A6B42F001021A631B6B03F001031C
:101D80000293029B4FF4C06305930223069303233F
:101D900008930723099305A9164800F0CBFBD8E761
:101DA00000210391124B1A6C42F480221A641A6CBF
:101DB00002F480220392039A04911A6B42F0020209
:101DC0001A631B6B03F002030493049B4FF44063FC
:101DD000059302230693032308930723099305A978
:101DE000054800F0A7FBB4E70010014000480040A0
:101DF000003802400000024000040240DFF834D006
:101E00000D480E490E4A002302E0D458C450043352
:101E1000C4188C42F9D30B4A0B4C002301E0136029
:101E20000432A242FBD3FFF703FF02F0ABF8FFF747
:101E30005FFE70470000032000000020C009002062
:101E40007CA30008C0090020EC0C0020FEE7000085
:101E500010B504460E4B18784FF47A73B3FBF0F3C9
:101E60000C4A1068B0FBF3F000F050FB68B90F2C7F
:101E700001D901200AE0002221464FF0FF3000F096
:101E8000FFFA054B1C60002000E0012010BD00BFE0
:101E900004000020000000200800002008B50B4BC3
:101EA0001A6842F400721A601A6842F480621A607A
:101EB0001A6842F480721A60032000F0CFFA0F20F3
:101EC000FFF7C6FFFFF728FE002008BD003C0240D8
:101ED000034A1168034B1B780B441360704700BF23
:101EE000F80A002004000020014B1868704700BF6A
:101EF000F80A002038B50446FFF7F6FF0546B4F1AE
:101F0000FF3F02D0044B1B781C44FFF7EDFF401B42
:101F1000A042FAD338BD00BF040000204A4B5A68E3
:101F200022F440325A605A6841680A435A60026893
:101F3000536823F48073536002685368016943EA6D
:101F4000012353600268536823F0407353600268B2
:101F5000536881680B4353600268936823F40063FD
:101F6000936002689368C1680B439360826A374B41
:101F70009A4257D00268936823F0706393600268B6
:101F80009368816A0B4393600268936823F040531F
:101F9000936002689368C16A0B4393600268936818
:101FA00023F00203936002689368017E43EA4103D1
:101FB000936090F82030002B3FD00268536843F4C0
:101FC000006353600268536823F460435360016800
:101FD0004B68426A013A43EA42334B600268D36A73
:101FE00023F47003D3620168CB6AC269013A43EA01
:101FF0000253CB620268936823F400739360026813
:10200000936890F8301043EA412393600268936824
:1020100023F48063936002689368416943EA8123F3
:10202000936070470268936823F07063936002685E
:10203000936823F040539360B0E70268536823F439
:1020400000635360CAE700BF002301400100000F96
:1020500038B310B50446036C43B1236C13F0100F72
:102060000BD00120002384F83C3010BDFFF7E0FBCB
:102070000023636484F83C30EFE7236C23F4885337
:1020800023F0020343F0020323642046FFF746FFD8
:1020900000206064236C23F0030343F001032364F6
:1020A000E0E701207047000082B00023019390F820
:1020B0003C30012B00F08980012380F83C3003681C
:1020C0009A6812F0010F13D19A6842F001029A60E7
:1020D000414B1B68414AA2FB03239B0C03EB4303C8
:1020E000019302E0019B013B0193019B002BF9D17D
:1020F0000268936813F0010F5CD0036C23F4E06373
:1021000023F0010343F480730364536813F4806F76
:1021100005D0036C23F4405343F480530364036CF1
:1021200013F4805F1BD0436C23F006034364002349
:1021300080F83C306FF022031360294B5B6813F08A
:102140001F0F27D10368274A934211D002F58072EE
:10215000934207D0244A934214D0002033E0002356
:102160004364E4E702F50072526812F01F0FF1D1E8
:102170009A6812F0405F2AD19A6842F080429A60D1
:10218000002020E002F58072526812F0100FEFD0AC
:10219000002018E00368134A934201D0002012E0A7
:1021A0009A6812F0405F14D19A6842F080429A60B7
:1021B000002008E0036C43F010030364436C43F019
:1021C00001034364002002B070470220FBE70020B7
:1021D000F9E70020F7E700BF0000002083DE1B4383
:1021E00000230140002001400022014070B5044658
:1021F0000D4603689A6812F4806F03D09B6813F44D
:10220000807F19D1FFF770FE064623681A6812F026
:10221000020F20D1B5F1FF3FF7D0B5B923681B6895
:1022200013F0020FF1D1236C43F004032364002365
:1022300084F83C30032032E0036C43F02003036455
:10224000002380F83C30012029E0FFF74DFE801B81
:10225000A842DAD9E2E76FF012021A60236C43F465
:102260000073236423689A6812F0405F16D1207EC1
:10227000B0B9DA6A12F4700F03D09B6813F4806F60
:102280000DD1236C23F480732364236C13F4805FDB
:1022900005D1236C43F00103236400E0002070BDEE
:1022A0000020FCE70368D86C7047000030B482B0AF
:1022B0000023019390F83C30012B00F0C0800123F3
:1022C00080F83C300B68092B41D90468E2689BB266
:1022D00003EB43031E3B4FF0070C0CFA03F322EA17
:1022E0000303E3600468E2680B8803EB43031E3BCF
:1022F0008D6805FA03F31343E3604B68062B3DD862
:102300000468626B03EB8303053B4FF01F0C0CFA70
:1023100003F322EA030363630468626B4B6803EB15
:102320008303053BB1F800C00CFA03F31343636366
:102330000268444B9A4251D00268424B9A425AD0AA
:10234000002380F83C30184602B030BC7047046867
:1023500022699BB203EB43034FF0070C0CFA03F323
:1023600022EA03032361046822690B8803EB430319
:102370008D6805FA03F313432361BEE70C2B16D8CF
:1023800005682A6B03EB8303233B1F2404FA03F342
:1023900022EA03032B6305682A6B4B6803EB830374
:1023A000233B0C8804FA03F313432B63C0E705684F
:1023B000EA6A03EB8303413B1F2404FA03F322EA96
:1023C0000303EB620568EA6A4B6803EB8303413B56
:1023D0000C8804FA03F31343EB62A9E70B68122B92
:1023E000AAD1194B5A6822F400025A605A6842F482
:1023F00080025A60A0E70B68144A934201D0112B67
:102400009ED1114B5A6822F480025A605A6842F4F5
:1024100000025A600A680D4B9A4291D10C4B1B681E
:102420000C4AA2FB03239B0C03EB83035B00019389
:10243000019B002B84D0019B013B0193F8E7022014
:1024400082E700BF0020014000230140120000107D
:102450000000002083DE1B43006C7047074AD368EE
:1024600023F4E0631B041B0C000200F4E060034350
:1024700043F0BF6343F40033D360704700ED00E0E6
:1024800000B5194BDB68C3F30223C3F1070CBCF1A1
:10249000040F28BF4FF0040C03F1040EBEF1060F29
:1024A00018D9033B4FF0FF3E0EFA0CFC21EA0C0159
:1024B00099400EFA03F322EA0303194300280BDBC9
:1024C0000901C9B200F1604000F5614080F80013D5
:1024D0005DF804FB0023E5E700F00F000901C9B235
:1024E000024B1954F4E700BF00ED00E014ED00E0EA
:1024F000002807DB00F01F02400901239340024A35
:1025000042F82030704700BF00E100E00138B0F130
:10251000807F0BD24FF0E0235861054AF02182F80A
:1025200023100020986107221A617047012070472C
:1025300000ED00E000230F2B00F2F18070B582B0B7
:1025400061E085685E000324B44025EA0405CC6898
:10255000B4402C438460456825EA02054C68C4F306
:1025600000129A402A4342605BE0DC08083450F8CD
:10257000246003F0070295000F22AA4026EA020E0B
:102580000A69AA4042EA0E0240F824205DE00922CE
:1025900000E0002202FA0EF22A430234604D45F8B0
:1025A0002420604A94686FEA0C0224EA0C054E6805
:1025B00016F4801F01D04CEA04055A4CA560E4686B
:1025C00002EA04054E6816F4001F01D04CEA040527
:1025D000544CE560646802EA04054E6816F4003F56
:1025E00001D04CEA04054F4C6560246822404D68D8
:1025F00015F4803F01D04CEA04024A4C22600133BA
:102600000F2B00F28A8001229A400C6804EA020C27
:1026100032EA0404F3D14C6804F00304013C012CB9
:102620008FD94A6802F00302032A09D0C4685D000A
:102630000322AA4024EA02048A68AA402243C26014
:102640004A6802F00302022A8FD004684FEA430E60
:10265000032202FA0EF224EA02044A6802F003029C
:1026600002FA0EF2224302604A6812F4403FC6D0DA
:10267000002201922C4A546C44F480445464526CFD
:1026800002F480420192019A9C08A51C244A52F847
:10269000255003F003024FEA820E0F2202FA0EF2D7
:1026A00025EA0205214A90423FF473AF02F58062A9
:1026B000904222D002F58062904220D002F58062E2
:1026C00090421ED002F5806290421CD002F58062DA
:1026D00090421AD002F58062904218D002F58062D2
:1026E000904216D002F58062904214D002F58062CA
:1026F00090423FF44CAF0A224CE701224AE7022203
:1027000048E7032246E7042244E7052242E706227F
:1027100040E707223EE708223CE702B070BD704761
:1027200000380140003C01400038024000000240F7
:102730000369194201D001207047002070470AB197
:1027400081617047090481617047000008B5054B3D
:102750005B69034200D108BD024B586100F034FFB1
:10276000F9E700BF003C014010B582B0002301939F
:10277000194B1A6C42F080521A641B6C03F08053A0
:102780000193019B154B01221A64FFF7ADFB044630
:10279000134B5B6813F4803F08D1FFF7A5FB001BC8
:1027A000B0F57A7FF4D9032002B010BD0B4B0122A3
:1027B0005A64FFF799FB0446094B5B6813F4003F2A
:1027C00007D1FFF791FB001BB0F57A7FF4D9032006
:1027D000EAE70020E8E700BF0038024000000E42B0
:1027E00000700040002800F0E08170B582B004461F
:1027F000036813F0010F3BD09F4B9B6803F00C0361
:10280000042B2CD09C4B9B6803F00C03082B21D08D
:102810006368B3F5803F4FD0B3F5A02F52D0964BED
:102820001A6822F480321A601A6822F480221A6030
:102830006368002B50D0FFF757FB05468E4B1B6893
:1028400013F4003F14D1FFF74FFB401B6428F5D968
:102850000320B1E1884B5B6813F4800FD8D0864B1E
:102860001B6813F4003F03D06368002B00F09F81C6
:10287000236813F0020F54D07F4B9B6813F00C0FAA
:102880003ED07D4B9B6803F00C03082B33D0E368EC
:10289000002B68D0794B01221A60FFF725FB054613
:1028A000754B1B6813F0020F54D1FFF71DFB401B43
:1028B0000228F5D903207FE16F4A136843F480337F
:1028C0001360B5E76C4B1A6842F480221A601A68EC
:1028D00042F480321A60ABE7FFF706FB0546664B11
:1028E0001B6813F4003FC3D0FFF7FEFA401B6428B7
:1028F000F5D9032060E1604B5B6813F4800FC6D10B
:102900005D4B1B6813F0020F03D0E368012B40F00E
:102910005081594A136823F0F803216943EAC1033F
:102920001360236813F0080F42D063696BB3534BF5
:102930000122C3F8802EFFF7D7FA05464E4B5B6F96
:1029400013F0020F34D1FFF7CFFA401B0228F5D95C
:10295000032031E1484A136823F0F803216943EA70
:10296000C1031360DDE7454B00221A60FFF7BCFA94
:102970000546414B1B6813F0020FD2D0FFF7B4FAA3
:10298000401B0228F5D9032016E13C4B0022C3F876
:10299000802EFFF7A9FA0546374B5B6F13F0020F45
:1029A00006D0FFF7A1FA401B0228F5D9032003E166
:1029B000236813F0040F77D02F4B1B6C13F0805F4C
:1029C00033D1002301932C4B1A6C42F080521A64CD
:1029D0001B6C03F080530193019B0125284B1B685E
:1029E00013F4807F23D0A368012B34D0052B38D07B
:1029F000214B1A6F22F001021A671A6F22F00402AB
:102A00001A67A368002B3DD0FFF76EFA06461A4BF3
:102A10001B6F13F0020F46D1FFF766FA801B41F2DD
:102A200088339842F3D90320C6E00025D6E7144A3C
:102A3000136843F480731360FFF756FA0646104B91
:102A40001B6813F4807FCED1FFF74EFA801B02285B
:102A5000F5D90320B0E0084A136F43F00103136770
:102A6000CFE7054B1A6F42F004021A671A6F42F063
:102A700001021A67C5E700BF003802400000474264
:102A800000700040FFF730FA0646524B1B6F13F000
:102A9000020F08D0FFF728FA801B41F288339842D2
:102AA000F3D9032088E0EDB9A369002B00F08380FF
:102AB000484A926802F00C02082A51D0022B17D023
:102AC000454B00221A66FFF70FFA0446414B1B687C
:102AD00013F0007F42D0FFF707FA001B0228F5D958
:102AE000032069E03B4A136C23F080531364DBE757
:102AF000394B00221A66FFF7F7F90546354B1B687C
:102B000013F0007F06D0FFF7EFF9401B0228F5D93C
:102B1000032051E0E369226A1343626A43EA8213A5
:102B2000A26A5208013A43EA0243E26A43EA0263B4
:102B3000284A5360284B01221A66FFF7D5F904464C
:102B4000244B1B6813F0007F06D1FFF7CDF9001B63
:102B50000228F5D903202FE000202DE000202BE0F3
:102B6000012B2BD01B4B5B6803F48001E26991427F
:102B700026D103F03F02216A8A4223D1616A47F6D7
:102B8000C0721A40B2EB811F1ED103F44031A26A19
:102B90005208013AB1EB024F18D103F07063E26AB8
:102BA000B3EB026F14D1002006E001207047012032
:102BB00002E0012000E0002002B070BD0120FBE730
:102BC0000120F9E70120F7E70120F5E70120F3E70D
:102BD0000120F1E7003802400000474208B5254BCC
:102BE0009B6803F00C03042B3FD0082B3FD1214BF3
:102BF0005A6802F03F025B6813F4800F12D01D4B3D
:102C00005968C1F388111C480023A1FB0001FEF79D
:102C100029FA184B5B68C3F3014301335B00B0FB37
:102C2000F3F025E0134B5968C1F3881C4FEA4C11AF
:102C3000B1EB0C006EEB0E0E4FEA8E1343EA90637D
:102C40008101091A63EB0E03DB0043EA5173C900EB
:102C500011EB0C0C43F10003990200234FEA8C2086
:102C600041EA9C51FEF7FEF9D3E7034800E0034830
:102C700008BD00BF0038024040787D010024F40008
:102C8000002800F09B8070B50D4604464F4B1B6832
:102C900003F00F038B4208D2CBB24C4A1370136877
:102CA00003F00F038B4240F08B80236813F0020F78
:102CB00017D013F0040F04D0454A936843F4E0534F
:102CC0009360236813F0080F04D0414A936843F4DB
:102CD000604393603E4A936823F0F003A1680B437E
:102CE0009360236813F0010F32D06368012B21D069
:102CF0009A1E012A25D9364A126812F0020F61D0B5
:102D000033498A6822F0030213438B60FFF7ECF823
:102D100006462F4B9B6803F00C036268B3EB820FEF
:102D200016D0FFF7E1F8801B41F288339842F0D9C2
:102D3000032042E0264A126812F4003FE0D101204D
:102D40003BE0234A126812F0007FD9D1012034E021
:102D50001E4B1B6803F00F03AB4207D9EAB21B4BB3
:102D60001A701B6803F00F03AB422DD1236813F0D8
:102D7000040F06D0164A936823F4E053E1680B432E
:102D80009360236813F0080F07D0114A936823F467
:102D90006043216943EAC1039360FFF71FFF0C4BB7
:102DA0009B68C3F303130B4AD35CD8400A4B1860EB
:102DB0000A4B1868FFF74CF8002070BD01207047DF
:102DC0000120FAE70120F8E70120F6E7003C024085
:102DD00000380240C89E00080000002008000020C3
:102DE000014B1868704700BF0000002008B5FFF7CE
:102DF000F7FF044B9B68C3F38223034AD35CD8409C
:102E000008BD00BF00380240D89E000808B5FFF793
:102E1000E7FF044B9B68C3F34233034AD35CD840BB
:102E200008BD00BF00380240D89E000810B4036AF5
:102E3000046A24F001040462846924F0F00C4CEA72
:102E4000021223F00A030B438261036210BC704735
:102E500010B4046A24F0100404628469036A24F440
:102E6000704C4CEA023223F0A00343EA0113826162
:102E7000036210BC7047836823F070030B4343F078
:102E800007038360704700000368304A904212D005
:102E9000B0F1804F0FD0A2F57C4290420BD002F5EA
:102EA0008062904207D002F58062904203D002F522
:102EB0007842904203D123F070034A681343234AB7
:102EC00090422AD0B0F1804F27D0A2F57C429042A8
:102ED00023D002F5806290421FD002F580629042BA
:102EE0001BD002F57842904217D002F57052904202
:102EF00013D002F5806290420FD002F580629042BA
:102F00000BD0A2F59832904207D002F58062904231
:102F100003D002F58062904203D123F44073CA6863
:102F2000134323F080034A69134303608B68C36231
:102F30000B688362054B984203D003F58063984287
:102F400001D10B6903630123436170470000014015
:102F500040B310B5044690F83D30F3B1022384F835
:102F60003D30214651F8040BFFF78EFF012384F812
:102F7000463084F83E3084F83F3084F8403084F89E
:102F8000413084F8423084F8433084F8443084F887
:102F9000453084F83D30002010BD80F83C30FEF70D
:102FA0007FFEDBE70120704710B4846824F47F4C77
:102FB00042EA03220A4342EA0C02826010BC7047D4
:102FC00090F83C30012B78D010B50446012380F8EE
:102FD0003C30022380F83D300268936823F47F433D
:102FE00023F0770393600B68602B4CD029D8402BDB
:102FF00054D00CD9502B22D1CA6849680068FFF719
:1030000015FF50212068FFF736FF002005E0202B38
:103010000DD009D9302B0AD00120012384F83D308E
:10302000002384F83C3010BD0BB1102B05D119469C
:103030002068FFF720FF0020EFE70120EDE70120E7
:10304000EBE7B3F5805F34D0B3F5005F0CD1CB680C
:103050004A6889680068FFF7A7FF2268936843F40D
:10306000804393600020D8E7702B24D1CB684A6856
:1030700089680068FFF798FF2268936843F0770338
:1030800093600020C9E7CA6849680068FFF7E0FE5E
:1030900060212068FFF7EFFE0020BEE7CA6849689C
:1030A0000068FFF7C3FE40212068FFF7E4FE002020
:1030B000B3E70020B1E70120AFE70220704700002E
:1030C00090F83C30012B3CD010B4012380F83C3008
:1030D000022380F83D3003685A689C6822F0700C27
:1030E0000A6842EA0C025A600368174A93421AD0EF
:1030F000B3F1804F17D0A2F57C42934213D002F572
:10310000806293420FD002F5806293420BD002F5A9
:103110007842934207D002F57052934203D0A2F551
:103120009432934204D124F080044A6814439C6092
:10313000012380F83D30002380F83C30184610BC55
:1031400070470220704700BF0000014038B50446B8
:103150000268136923F44053C1680B431361836809
:103160000269134342691343C2691A430168CB6879
:1031700023F4164323F00C031343CB600268536916
:1031800023F4407381690B4353610368314A9342CE
:1031900006D002F58062934202D0FFF727FE01E0DD
:1031A000FFF734FEE369B3F5004F29D0002103187F
:1031B00049411B1841F10001C90041EA5371DB008C
:1031C000181863684FEA83024FEA937341F10001D4
:1031D000FDF748FF204DA5FB00325109642303FB96
:1031E00011031B013233A5FB03235B0903F0F0023B
:1031F00002EB011203F00F03216813448B6038BD0A
:103200000023021843EB0301121841F10001C90029
:1032100041EA5271D200101841F10001626892181F
:103220005B41FDF71FFF0C4DA5FB003251096423E4
:1032300003FB1103DB003233A5FB03235B095A00B8
:1032400002F4F87202EB011203F007032168134441
:103250008B60D4E7001001401F85EB512DE9F84346
:1032600005460F4616469946DDF820802C682468EE
:1032700037EA04030CBF4FF0010C4FF0000CB445CB
:103280002DD1B8F1FF3FF1D0B8F1000F05D0FEF716
:103290002BFEA0EB09004045E8D92A6802F10C0397
:1032A00053E8003F23F4D0730C3242E80031002988
:1032B000F3D12A6802F1140353E8003F23F001031D
:1032C000143242E800310029F3D1202385F83D3043
:1032D00085F83E30002385F83C30032000E00020D4
:1032E000BDE8F88358B310B5044690F83D300BB3F1
:1032F000242384F83D302268D36823F40053D3603C
:103300002046FFF723FF2268136923F490431361DB
:103310002268536923F02A0353612268D36843F477
:103320000053D36000202064202384F83D3084F8CB
:103330003E3010BD80F83C30FEF7FCFCD8E70120A1
:1033400070472DE9F04182B01E4690F83D30DBB267
:10335000202B54D104460D469046002953D0002A14
:1033600053D090F83C30012B51D0012380F83C30F1
:1033700000230364212380F83D30FEF7B5FD0746A6
:10338000A4F82480A4F82680A368B3F5805F05D054
:103390004FF00008002384F83C3012E0236913B199
:1033A0004FF00008F6E7A8460025F3E738F8023B9F
:1033B0002268C3F308035360E28C92B2013A92B2DE
:1033C000E284E38C9BB273B100963B4600228021DD
:1033D0002046FFF743FFE0B9002DE7D015F8012B99
:1033E00023685A60E8E700963B46002240212046C9
:1033F000FFF734FF78B9202384F83D3000E0022045
:1034000002B0BDE8F0810120FAE70120F8E70220D0
:10341000F6E70320F4E70320F2E72DE9F04182B05C
:103420001E4690F83E30DBB2202B5CD104460D46A0
:10343000904600295BD0002A5BD090F83C30012BED
:1034400059D0012380F83C3000230364222280F805
:103450003E200363FEF748FD0746A4F82C80A4F83D
:103460002E80A368B3F5805F05D04FF000080023DD
:1034700084F83C3017E0236913B14FF00008F6E7F9
:10348000A8460025F3E723685B68C3F3080328F820
:10349000023B03E023685B682B700135E28D92B23A
:1034A000013A92B2E285E38D9BB2BBB100963B46F6
:1034B000002220212046FFF7D1FEF0B9002DE2D0F6
:1034C000A368B3F5805FE5D013B92369002BE1D081
:1034D00023685B6803F07F032B70DEE7202384F80A
:1034E0003E30002000E0022002B0BDE8F081012063
:1034F000FAE70120F8E70220F6E70320F4E70000EE
:1035000010B50446FDF73CFF0A2382B2214602486B
:10351000FFF717FF10BD00BFB40A002000B583B04D
:1035200000238DF807300A2301220DF1070104481A
:10353000FFF773FF9DF8070003B05DF804FB00BFC1
:10354000B40A002000B58FB002460B46044901A81A
:1035500000F08EFD01A8FFF7D3FF0FB05DF804FB6C
:10356000E09E000810B4144C2378144A42F823005B
:10357000591C134A82FB01035B114FF0640C0CFBD6
:103580001313DBB2237063440E4908781B1A01330E
:1035900082FB0321DA17C2EB61120CFB123242B933
:1035A0000130074B83FB00235B110CFB1303054A1F
:1035B000137010BC704700BF0C000020FC0A0020F4
:1035C0001F85EB51900C0020B0F5807F00D0704734
:1035D000F8B500F06BFB0446104B1B682BB90F4B82
:1035E00001221A600E4B1860F8BD0D4F0146386875
:1035F00000F062FB06460B4B1868FDF7F5FA05462E
:103600003046FDF7F1FA01462846FDF7F9FB064B77
:103610001860FFF7A7FF3C60E6E700BF980C0020AA
:10362000940C0020000000208C0C00200000000002
:1036300010B50024002005E0114B53F82410FDF7CD
:1036400023FA0134632CF7DD0E49FDF7D9FBFCF7B3
:103650003BFF07A3D3E90023FCF78EFF06A3D3E9C2
:103660000023FCF7D1FDFDF7B9F910BDAFF30080E1
:103670003255302AA913F03FBB270F0BB5A6A93F3F
:10368000FC0A00200000C84210B5FFF7D1FFFCF78C
:103690001BFF02460B4610A1D1E90001FDF796F889
:1036A000FDF79CF9FCF710FF0DA3D3E90023FCF70D
:1036B000ABFD0DA3D3E90023FCF75EFFFDF78EF908
:1036C00004460021FDF786FC08B9204610BD002401
:1036D000FBE700BFAFF30080BE93386F7DE7254165
:1036E0003CBD5296214E4240B18D3B4F830CF03F82
:1036F00000B583B00A2101A800F086FA012805D0A0
:103700000198FDF771FA03B05DF804FB0023019303
:10371000F6E70000000000002DE9F0410026B04669
:10372000374600E00136632E2FD8FFF7E1FF05464C
:10373000FDF778FC00F054FAFCF7C6FE2AA3D3E9A3
:103740000023FCF719FF0022294BFCF715FF00228C
:10375000284BFCF711FFFDF741F904462649FDF718
:1037600039FC0028DED125492046FDF751FC002810
:10377000D8D13846FDF738FA2946FDF785F9FDF727
:1037800051FC074608F10108CCE7B8F1000F03D15E
:1037900000242046BDE8F081B7FBF8F0FCF772FE8C
:1037A0000022134BFCF732FDFDF7F8F800F018FA91
:1037B000FCF78AFE0CA3D3E90023FCF7DDFE002210
:1037C0000B4BFCF7D9FE00220A4BFCF7D5FEFDF7A8
:1037D00005F904460021FDF7FDFB0028D9D000249F
:1037E000D7E700BFAFF30080562B137EA91F004020
:1037F0000000E03F000024400000C84200C0DA455D
:1038000010B50A4C2046FEF74FFC32212046FEF749
:10381000EDFC2046FEF720FE10F4007F01D10020D1
:1038200010BD2046FEF73EFD80B2F9E7DC0900201E
:1038300038B50024254603E0FFF7E2FF05440134D4
:10384000632CF9DD2846FDF7CFF91149FDF7D8FAC9
:103850001049FDF721FA4FF06651FDF71DFAFCF70C
:1038600033FE07A3D3E90023FCF786FE06A3D3E9C2
:103870000023FCF7C9FCFDF7B1F838BDAFF30080B9
:10388000CC7F48BF7D1DF03FC7BAB88D06F0463FDC
:103890000000C8423333534010B5FFF7C9FF044658
:1038A00001461148FDF7EEF801462046FDF7A8FA5B
:1038B0000E49FDF7F1F9FCF707FE07A3D3E9002352
:1038C000FCF75AFE06A3D3E90023FCF79DFCFDF7A5
:1038D00085F810BDAFF30080C520B0726891EB3F52
:1038E00093A98251499DC03F3333534000006A423F
:1038F00008B5FCF7E9FD06A3D3E90023FCF73CFE7D
:1039000005A3D3E90023FCF781FCFDF767F808BDA8
:10391000C7BAB88D06F0563F091B9E5E29CBA03F63
:103920000FB410B5A2B024AB53F8042B219380211F
:1039300001A802F0DBF8C4B24FF0FF33224601A920
:103940000448FFF7FEFC204622B0BDE8104004B05A
:10395000704700BF700A002082B04FF4FA7303FB77
:1039600000F0019002E0019B013B0193019B002BC1
:10397000F9D102B07047000010B50D4C01220421AE
:103980002046FEF7DCFE0120FFF7E6FF0122802142
:103990000848FEF7D4FE0120FFF7DEFF00220421D5
:1039A0002046FEF7CCFE0120FFF7D6FF10BD00BF7A
:1039B000000802400000024010B50D4C0122042115
:1039C0002046FEF7BCFE0120FFF7C6FF0022802143
:1039D0000848FEF7B4FE0120FFF7BEFF00220421D5
:1039E0002046FEF7ACFE0120FFF7B6FF10BD00BF7A
:1039F000000802400000024070B506460022102177
:103A00000A48FEF79CFE8025082404E0FFF7D4FF57
:103A10006D08013CE4B224B13542F7D0FFF7ACFFAA
:103A2000F6E70120FFF798FF70BD00BF00080240D5
:103A300070B50646002210210E48FEF780FE0120D8
:103A4000FFF78AFF4FF00045202404E0FFF7B4FFA2
:103A50006D08013CE4B224B13542F7D0FFF78CFF8A
:103A6000F6E70120FFF778FF012210210148FEF759
:103A700066FE70BD0008024070B5002210211A4891
:103A8000FEF75DFE0120FFF767FF00264FF00045BF
:103A900020240DE06D080120FFF75EFF00220421C5
:103AA0001148FEF74CFE0320FFF756FF013CE4B23D
:103AB0007CB1012204210C48FEF741FE0320FFF7F0
:103AC0004BFF40210948FEF733FE0028E2D02E4389
:103AD000E0E70320FFF740FF012210210248FEF734
:103AE0002EFE304670BD00BF0008024000000240BC
:103AF00010B50D4C012211462046FEF720FE012094
:103B0000FFF72AFF002201212046FEF718FE0520BC
:103B1000FFF722FF012211462046FEF710FE01208A
:103B2000FFF71AFF10BD00BF0004024008B5FFF701
:103B3000DFFF5020FFF760FF0120FFF70DFF01229C
:103B400010211748FEF7FBFD1648FFF771FF012013
:103B5000FFF702FF1448FFF76BFF0120FFF7FCFEA1
:103B60001248FFF765FF0120FFF7F6FE1048FFF748
:103B70005FFF0120FFF7F0FE0E48FFF759FF01201D
:103B8000FFF7EAFE0C48FFF753FF0120FFF7E4FEC2
:103B90007020FFF731FF0120FFF7DEFE08BD00BFF8
:103BA0000008024020940080000101810000E082B2
:103BB00000000883000020840000088538B585B225
:103BC0000014FDF715F804462846FDF70DF84FF0F0
:103BD0005E51FDF761F801462046FCF755FF38BD00
:103BE00008B5FFF7EBFFFCF76FFC05A3D3E9002353
:103BF000FCF7ECFDFCF7F2FE08BD00BFAFF3008060
:103C0000FCA9F1D24D62603FF8B507460D46FEF7BC
:103C10006BF904467020FFF7EFFE0120FFF79CFED2
:103C2000012210211648FEF78AFD164B4FF4003290
:103C30009A61002393B1134B02229A61202110480C
:103C4000FEF776FD064660B10120FFF785FEFEF720
:103C50004BF9001BA842F1D901260EE00133DBB27B
:103C6000E8E70120FFF778FEB020FFF7C5FE01204E
:103C7000FFF772FEFFF700FF38603046F8BD00BF67
:103C800000080240000002404FF0E022D2F8FC3D64
:103C900043F08073C2F8FC3D034B00225A601A685F
:103CA00042F001021A607047001000E0014B5868B2
:103CB000704700BF001000E0884206D3431A081A7C
:103CC0000138834200D8184670470B1A401A013851
:103CD000F7E7000008B54C2814D0522823D0432819
:103CE00032D0002240212148FEF729FD0022402148
:103CF0001F48FEF724FD00224FF480411D48FEF7C7
:103D00001EFD0FE0002240211948FEF718FD002299
:103D10004FF480411748FEF712FD0122402113485D
:103D2000FEF70DFD08BD00224FF480411148FEF75B
:103D300006FD002240210D48FEF701FD0122402131
:103D40000B48FEF7FCFCEDE7002240210748FEF798
:103D5000F6FC002240210648FEF7F1FC01224FF458
:103D600080410448FEF7EBFCDCE700BF001802408E
:103D7000000802400004024030B58FB0FFF7CCFCD1
:103D8000FCF7A2FB1CA3D3E90023FCF73FFAFCF7E6
:103D900025FE05464C20FFF79DFF4FF47A70FEF795
:103DA000A9F8FFF7B9FC04464E20FFF793FF294618
:103DB0002046FCF767FE124B1860FCF785FB0246B5
:103DC0000B46104901A800F053F901A90E48FFF76E
:103DD000B9FB4320FFF77EFF4FF47A70FEF78AF8B5
:103DE000FFF752FC094B18604E20FFF773FF0FB02E
:103DF00030BD00BFAFF300803333333333B33040D3
:103E0000A00C0020F09E0008F89E00089C0C0020EA
:103E100010B58EB05220FFF75DFF4FF47A70FEF7B9
:103E200069F8FFF739FD04464E20FFF753FF294B91
:103E30001868FFF75DFD01462046FCF723FE0446A7
:103E40002549FDF7D1F800BB4320FFF743FF4FF4AE
:103E50007A70FEF74FF8FFF717FC04464E20FFF785
:103E600039FF1E4B19682046FCF70CFE04461C491E
:103E7000FDF7C4F8D8B91B491B48FFF763FB1B4982
:103E80001B48FFF75FFB0EB010BD1A491648FFF73D
:103E900059FB2046FCF718FB02460B46164901A8C1
:103EA00000F0E6F801A91248FFF74CFBEBE71349D5
:103EB0000D48FFF747FB2046FCF706FB02460B4682
:103EC0000F4901A800F0D4F801A90948FFF73AFB0F
:103ED000D9E700BFA00C00200000C8429C0C0020C5
:103EE0000000F0412C9F0008049F0008349F000848
:103EF000149F0008FC9E00080C9F00081C9F0008EF
:103F0000249F000808B50548FFF70AFDFFF7BCFE2F
:103F1000FFF70CFE4E20FFF7DDFE08BD389F0008BE
:103F200010B5FFF7FBFA0028FBD0612806D0622805
:103F300010D0FFF7F3FA0028FBD110BD0B4C0C4951
:103F40002046FFF7FFFAFFF717FF0A492046FFF761
:103F5000F9FAEEE7054C06492046FFF7F3FAFFF7BA
:103F600057FF04492046FFF7EDFAE2E7509F0008AB
:103F7000409F0008589F0008014B1868704700BF19
:103F80001000002070B50D4E0D4D761BB61006D0FA
:103F9000002455F8043B01349847A642F9D1094E54
:103FA000094D761B05F084FFB61006D0002455F8A5
:103FB000043B01349847A642F9D170BD70A30008B4
:103FC00070A3000878A3000870A30008830730B529
:103FD00048D0541E002A3FD0CAB2034601E0013C3B
:103FE0003AD303F8012B9D07F9D1032C2DD9CDB27B
:103FF00045EA05250F2C45EA054536D9A4F11002FE
:1040000022F00F0C03F1200EE6444FEA121C03F1DC
:10401000100242E9045542E9025510327245F8D1C6
:104020000CF1010214F00C0F03EB021204F00F0C60
:1040300013D0ACF1040323F003030433134442F818
:10404000045B9342FBD10CF003042CB1CAB21C44B4
:1040500003F8012B9C42FBD130BD64461346002C73
:10406000F4D1F9E703461446BFE71A46A446E0E751
:104070000EB410B59DB06FF000411FABCDE9060145
:104080000491094953F8042B0290084C08680193E5
:1040900002A9059400F00CF8029B00221A701DB0D2
:1040A000BDE8104003B07047100000200802FFFF79
:1040B0002DE9F04FD5B00C460C9191460E930A9025
:1040C00002F0BCFE036817931846FDF759F9A3895F
:1040D0001690190603D52369002B00F08B87002466
:1040E0002BAB4D46CDE92944CDE91944CDE91B441C
:1040F0001294289398461894002308940024CDE93C
:1041000014342B78002B00F0DD81AA4604E01AF865
:10411000013F002B00F01681252BF8D1BAEB0506E4
:1041200040F014819AF80030002B00F0CB8100237E
:104130004FF0FF329AF801608DF8833009930AF14D
:10414000010A07921F462B244FF020090AF1010AA9
:10415000A6F120035A2B00F22D81DFE813F0BA02FA
:104160002B012B01B5022B012B012B016A002B0126
:104170002B014F02E3022B015A02C9022B01C40298
:104180005B005B005B005B005B005B005B005B0057
:104190005B002B012B012B012B012B012B012B0190
:1041A000BF012B011A028600BF01BF01BF012B0115
:1041B0002B012B012B01B0022B012B01C3002B0182
:1041C0002B012B0124022B015F022B012B013C0749
:1041D0002B012B012B012B012B012B012B012B017F
:1041E000BF012B011A028800BF01BF01BF01A3025A
:1041F000880081002B0196022B018202C50070020B
:1042000081002B0124027E0039072B012B011907A5
:104210002B017E00A6F1300300221AF8016B02EB9D
:10422000820203EB4202A6F13003092BF5D9099271
:104230008EE7DDF828B0584602F000FE43681B9375
:104240001846FDF79DF81C900646584602F0F6FD0C
:1042500083681993002E40F07A869AF8006075E71B
:104260009AF8006047F0200770E747F01007BA0699
:104270000E9B40F18081073323F007031A465B68E9
:1042800052F8084B0E929946002BC0F25F85079BAF
:10429000013301F01F8054EA090327F0800B00F07E
:1042A000E3840A2C79F1000380F081873034012304
:1042B0008DF84F415F460B930DF24F1507990B9800
:1042C0009DF8832081424FF00003B8BF01460D9353
:1042D00006910F9313931093002A7CD0069B013311
:1042E000069378E047F0100717F0200900F03481BA
:1042F0000E9B073323F00703D3F8049053F8084BC1
:104300000E9327F4806B002300228DF88320079AF8
:10431000511C00F00D8254EA09012BF0800740F097
:104320000682002A41F01080002B40F0A2841BF08E
:1043300001030B9300F0378530238DF84F310DF2D8
:104340004F15BBE7BAEB050600F0BC802A9B33444F
:104350002A93299B0133072BC8E90056299305DCD2
:1043600008F10808089B33440893DBE60C990A9887
:1043700028AA03F051FC80B90DF1AC08F2E70C99C2
:104380000A9828AA03F048FC002800F08C800D9BB6
:104390001BB10D990A9802F04BFC0C9B9B8913F002
:1043A000400F089B18BF4FF0FF330893089855B093
:1043B000BDE8F08F002E00F0858000228DF8EC60C3
:1043C0008DF88320012306930D920B9307920F9291
:1043D000139210923BAD17F0020302D006990231FE
:1043E000069117F0840B07D109990698A1EB0009F3
:1043F000B9F1000F00F315832A9C8AB1299A0DF1B7
:10440000830101320134C8F80010072A4FF001017E
:104410002A942992C8F8041000F3468308F108088A
:1044200083B1299B21AA01330234C8F80020072B4D
:104430004FF002022A942993C8F8042000F348831D
:1044400008F10808BBF1800F00F00E82079B0B9A61
:10445000A3EB020BBBF1000F00F34F82FB0500F151
:10446000A5810B9BC8F804301C44299BC8F8005058
:104470000133072B2A94299300F3C78208F1080817
:104480007B0705D5099B069A9D1A002D00F32C8306
:10449000DDE9083206998A42ACBF9B185B18089385
:1044A000002C7FF46CAF002329930D9B1BB10D9959
:1044B0000A9802F0BDFB0DF1AC0855462B78002B95
:1044C0007FF423AE2A9B002B3FF467AF0C9C0A9825
:1044D00028AA214603F0A0FBA38960E70E9B0733BF
:1044E00023F00702F2E80234CDE91434DDE9143494
:1044F00024F000440E92994618462146A74B4FF0EF
:10450000FF32FDF71FF9002840F06284A34B4846B4
:1045100021464FF0FF32FDF7F7F8002840F05884AD
:10452000DDE9140100220023FDF7E4F8002840F043
:10453000AD879DF883209A4D9A4B27F08007032181
:10454000472EC8BF1D4600230D9306910B9107937C
:104550000F9313931093BFE617F0100340F02E84CF
:1045600017F0400200F054870E9A52F8044B0E9256
:104570009946A4B2C5E653F8044B0E93FB0600F12E
:1045800018847D0640F1128444F3C0394B4624B2AE
:104590007AE60E9B002253F8041B8DF883208DF8D9
:1045A000EC100E930EE70E9C079B54F8045B4FF043
:1045B00000098DF88390002D00F0D5865A1C00F07C
:1045C00052851A4649462846FCF74AFF0D900028B6
:1045D00001F057800D9BCDF81C905B1B0B930E9444
:1045E00023EAE3739DF883200693CDF83490CDF849
:1045F0003C90CDF84C90CDF840906DE60E9B53F872
:10460000042B0992002A80F2C983099A0E93524220
:1046100009929AF8006047F0040797E547F0100BFD
:104620001BF0200900F081830E9B073323F0070362
:10463000D3F8049053F8084B0E93012364E60E9BC5
:1046400053F8044B0E93302378268DF88430564B64
:10465000189347F0020B8DF885604FF00009022394
:1046600052E6BD0600F18284FC0600F173867806EE
:1046700000F13C87B90540F16D860E9B089953F80F
:10468000042B0E931170554618E79AF800606C2EB3
:1046900003BF9AF8016047F020070AF1010A47F0CA
:1046A000100753E59AF80060682E03BF9AF801607E
:1046B00047F400770AF1010A47F0400746E59AF807
:1046C000006047F0080741E59AF8006047F00107ED
:1046D0003CE59DF88330002B7FF4BFAD9AF8006075
:1046E0008DF8839032E59AF8006047F080072DE559
:1046F000524612F8016B2A2E01F0CD81A6F130034B
:10470000092B924698BF002201F288801AF8016BAB
:1047100002EB820203EB4202A6F13003092BF5D92A
:10472000079215E59AF800608DF883400EE5BB46C8
:10473000012B3FF4B6AD022B54AD12D1189A04F000
:104740000F032409D35C05F8013D44EA09744FEADC
:10475000191954EA0903F2D154AB5B1B5F460B9362
:10476000ACE504F00703E40844EA49744FEAD909C8
:10477000303354EA09012A4605F8013DF1D11BF016
:10478000010FE9D0302BE7D03023023A05F8013C85
:1047900054AB9B1A5F460B9315468FE5FFFFEF7FE7
:1047A0006C9F0008709F00087C9F0008652E40F3F6
:1047B000E680DDE9140100220023FCF791FF0028C8
:1047C00000F0CD81299BBF4AC8F800200133013495
:1047D0000122072B2A942993C8F8042000F37D8531
:1047E00008F10808229B129A934280F2D382169B0A
:1047F000179A1C44C8E90023299B2A940133072BEC
:10480000299300F3EB8308F10808129B5D1E002D2D
:104810007FF736AE102D299BDFF8AC9240F36E8502
:1048200049462246B946DDF828B00C9C10260F46B2
:1048300005E008F10808103D102D40F35B850133B9
:104840001032072BC8E90076CDE92932F1DD28AA1C
:104850002146584603F0E0F900287FF498ADDDE9E1
:1048600029320DF1AC08E6E7099B069AA3EB020B8F
:10487000BBF1000F7FF7EAADBBF1100F299ADFF80B
:1048800048922CDD1D9621464E460C9CDDF8289062
:10489000102306E0ABF1100BBBF1100F08F1080874
:1048A0001ADD01321031072AC8E90063CDE9292158
:1048B000F0DD28AA214648460DF1AC0803F0ACF91A
:1048C00000287FF464ADABF1100BBBF1100FDDE9F4
:1048D00029214FF01003E4DCB1461D9E0C46013245
:1048E0005C44072ACDE92924C8F80090C8F804B030
:1048F00000F31D8508F10808A8E5BBF1100F299AFF
:10490000DFF8C4912DDD41462046A8464C460C9D5B
:10491000DDF82890102306E0ABF1100BBBF1100F6F
:1049200001F1080119DD01321030072AC1E9004305
:10493000CDE92920F0DD28AA2946484603F06CF984
:1049400000287FF424ADABF1100BBBF1100FDDE9B3
:1049500029202BA94FF01003E5DC4546A1468846E7
:10496000044601325C44072ACDE92924C8F80090A6
:10497000C8F804B000F3CC8108F108086EE5129B7A
:10498000012B40F37C81299EC8F800500136013488
:104990000123072E2A942996C8F8043000F3E081F9
:1049A00008F10808169B179A01361C44072EC8E91F
:1049B0000023CDE9296400F3E08108F10808DDE96E
:1049C000140100220023FCF78BFE002840F07481C4
:1049D000129B0136013B01351C44072EC8F80050DC
:1049E0002996C8F804302A9400F3598108F1080880
:1049F0001A9BC8F8043001361C44072E24ABCDE9BD
:104A00002964C8F800307FF739AD0C990A9828AAB4
:104A100003F002F900287FF4BAAC2A9C0DF1AC082F
:104A20002EE5B9F1100FDDE929212BDDCDE91D3B84
:104A30001F96DDF828B04E461024A9460C9D04E0D0
:104A4000103E102E08F1080817DD01321F4B1031FF
:104A5000072AC8E90034CDE92921F1DD28AA294631
:104A600058460DF1AC0803F0D7F800287FF48FAC5E
:104A7000103E102EDDE92921E7DCDDE91D3B4D4626
:104A8000B1461F9EC8F80490013209EB0104072AC1
:104A90000E49C8F80010CDE9292400F3FF839DF8E2
:104AA000832008F10808A8E40C990A981D9328AA05
:104AB00003F0B2F800287FF46AAC2A9C1D9B0DF12C
:104AC000AC08ADE4AC9F0008C09F0008B09F000890
:104AD0000C990A9828AA03F09FF800287FF457AC95
:104AE0002A9C0DF1AC08ADE4102D299B21DD0A9F15
:104AF000DDF83090102604E0103D102D08F1080874
:104B000017DD0133B04A1034072BC8E90026CDE980
:104B10002934F1DD28AA494638460DF1AC0803F0E6
:104B20007BF800287FF433AC103D102DDDE92934EB
:104B3000E7DC0133A44AC8F804502C44072BCDE924
:104B40002934C8F800207FF7A3AC0C990A9828AA4A
:104B500003F062F800287FF41AAC2A9C98E42299AA
:104B6000002940F36683DDF84090129B9945A8BF69
:104B70009946B9F1000F0BDD299B01334C44072BFB
:104B8000C8E900592A94299300F32F8508F10808F1
:104B9000109EB9F1000FA8BFA6EB0906002E00F386
:104BA0003882DDF840B07805AB4400F16682229B84
:104BB000129A934202DBF90740F18E84169A1799F4
:104BC0001444C8E90012299A2A940132072A29922A
:104BD00000F3188508F10808129AAE18A6EB0B0628
:104BE000D51AAE42A8BF2E46002E0DDD299BC8F86F
:104BF00000B001333444072BC8F804602A94299389
:104C000000F31A8608F10808002EA8BFAD1B002D7E
:104C10007FF736AC102D299BDFF8B09140F36E83FF
:104C200049462246B946DDF828B00C9C10260F46AE
:104C300005E008F10808103D102D40F35B830133B7
:104C40001032072BC8E90076CDE92932F1DD28AA18
:104C50002146584602F0E0FF00287FF498ABDDE9DA
:104C600029320DF1AC08E6E7079B002B7FF41EAB61
:104C70005F46002307930B9354ADFFF71FBBFA0762
:104C80003FF581AE299EC8F800500136013401235A
:104C9000072E2A942996C8F804307FF7A7AE0C99FE
:104CA0000A9828AA02F0B8FF00287FF470ABDDE96B
:104CB00029640DF1AC089BE6129B5D1E002D7FF769
:104CC00097AE102DDFF8049140F3968322460797A4
:104CD0000A9C0C9F4FF0100B05E008F10808103DEE
:104CE000102D40F3878301361032072EC8E9009B50
:104CF000CDE92962F1DD28AA3946204602F08CFF71
:104D000000287FF444ABDDE929620DF1AC08E6E749
:104D10000C990A9828AA02F07FFF00287FF437AB8D
:104D20002A9C0DF1AC08FFF799BB1BF0100340F073
:104D300028811BF0400200F079830E9A52F8044B50
:104D40000E929946A4B20123FFF7DEBA2D236442E6
:104D50008DF8833069EB4909BB460123FFF7D7BAC9
:104D60000C990A9828AA02F057FF00287FF40FAB8D
:104D7000DDE929640DF1AC0814E60C990A9828AA1B
:104D800002F04AFF00287FF402ABDDE929640DF14F
:104D9000AC0814E6FD077FF573AB28E59AF80060D0
:104DA0000E93FFF7D3B954ADFFF788BAB80500F1F9
:104DB000A6834FEAE4794B46FFF766BA0E9B53F899
:104DC000044B0E93FFF79DBAB09F0008C09F0008E8
:104DD000DDE9140102460B46FCF7B4FC002840F064
:104DE0000F86612E00F04585412E00F06D84079BF3
:104DF000013326F02003069300F0A983472B00F02F
:104E00008885DDE9141247F480730F931346002B55
:104E1000C0F292850B9300231D938B460D93069B46
:104E2000462B00F0FD83452B00F044850799019146
:104E300026A9049123A9039122A9029102210B9B87
:104E40000A9800915A4600F02BFF069B472B054617
:104E500040F0318617F0010FB9460F9F40F0FC84F7
:104E6000269B5B1B1293069B472B00F08283069BBD
:104E7000462B00F01284229B1093109B069A013B54
:104E8000412A229300F0AD85F2B20021002BB8BF79
:104E9000109B8DF89020BABFC3F101032D222B2265
:104EA000092B8DF8912040F38D850DF19F04B64FAD
:104EB0002246104687FB0321DA17C2EBA10202EB60
:104EC0008201A3EB4101303100F8011C194663292E
:104ED000134600F1FF32ECDC3033D9B2831E9C4222
:104EE00002F8011C40F2F18513460DF1920201E037
:104EF00013F8011B02F8011B9C42F9D10DF1A1032B
:104F00000DF192021B1A134424AA9B1A1A93129BA6
:104F10001A9A012B1A440B9240F39E850B9B169A0A
:104F200013440B930B9A002329F4806722EAE27260
:104F300047F480770F930692139310931D9B002BD9
:104F400040F03F839DF883200793FFF7C5B9199B75
:104F5000002B3FF482A9199B1B78002B3FF47DA9FD
:104F60009AF8006047F48067FFF7F0B80E9B089846
:104F700053F8041B0E93C217C1E900025546FFF710
:104F80009DBA0E9B53F8044B0E930123FFF7BCB957
:104F90007E4B189317F0200900F0EC800E9B07332E
:104FA00023F00703D3F8049053F8084B0E93F80747
:104FB00009D554EA090306D030238DF8856047F0FF
:104FC00002078DF8843027F4806B0223FFF79CB929
:104FD000BB46FFF725BB6E4B1893DBE70C990A988D
:104FE00028AA02F019FE00287FF4D1A92A9C0DF10D
:104FF000AC080AE40A98402101F02CFF0C9B1860D1
:105000001861002800F065850C9A40235361FFF772
:1050100066B8102E299BDFF87C9140F32982484620
:1050200042462146A846B9460A9C0C9D4FF0100BFB
:10503000074604E00832103E102E40F3138201337D
:105040001031072BC2E9007BCDE92931F2DD28AA16
:105050002946204602F0E0FD00287FF498A9DDE90A
:1050600029312BAAE7E72846CDF81C900E94FCF7CF
:1050700087F903460B90FFF7B3BA129BCDF82CA02B
:105080004246DDF84C801097EB1807935E46199F57
:10509000DDF87090DDF828A0DDF830B00F9B139597
:1050A0002146B8F1000F2FD0002B30D1013F08F17D
:1050B000FF381B9BC2E90039299B01334944072B68
:1050C0002A91299368DC0832079B38789B1B83421E
:1050D000A8BF0346002B1C460BDD2998013019445C
:1050E0000728C2E900632A91299000F314813878D7
:1050F0000832002CACBF051B0546002D0BDC064416
:105100000F9BB8F1000FCFD1002B00F023820F9B33
:10511000013B0F93CDE7102D29981DDD102404E0ED
:10512000103D102D02F1080216DD0130194B10312F
:105130000728C2E90034CDE92901F1DD28AA594642
:10514000504602F069FD00287FF421A9103D102D82
:10515000DDE929012BAAE8DC01300E4B556029441A
:105160000728CDE92901136000F33282387808322C
:105170000644C5E717F0100300F0A1800E9B53F81A
:10518000044B0E9313E700BF676666667C9F0008BA
:10519000909F0008C09F000828AA5946504602F078
:1051A0003BFD00287FF4F3A82A992BAA8CE70BF487
:1051B000806300220696CDF82CA0CDF8348054AF41
:1051C000DDF864809A4616460CE0002320464946E6
:1051D0000A22FBF747FF0A2C79F100031BD3044690
:1051E00089462F4620460A2200234946FBF73AFF0C
:1051F00030327D1E013607F8012CBAF1000FE4D0E1
:1052000098F800309E42E0D1FF2EDED00A2C79F1D2
:10521000000380F0408154AB5B1BDDF82CA0CDF87F
:1052200064801296DDF83480069E0B935F46FFF78C
:1052300045B8299BBC4AC8F800200133013401223B
:10524000072B2A942993C8F8042000F3388108F129
:105250000808002940F09780129A07F001031343D1
:105260003FF40EA9169B17991A19C8E90013299B38
:105270002A920133072B299300F3478108F108088C
:105280001299C8F8005001338C18072BCDE9293446
:10529000C8F804107FF7F2A8FFF7B7BB0C990A987B
:1052A0001D9328AA02F0B8FC00287FF470A89DF88E
:1052B00083202A9C1D9B0DF1AC08FFF79EB817F0C8
:1052C000400200F0C2800E9A52F8044B0E929946AA
:1052D000A4B26CE6BB46FEF7E4BF0C990A9828AA74
:1052E00002F09AFC00287FF452A82A9C0DF1AC0829
:1052F000FFF778BA14463A464F46914601332C449C
:10530000072BC8F80090C8F80450CDE929347FF77E
:10531000B5A8FFF77ABB28AA5946504602F07CFC94
:1053200000287FF434A838782A992BAAE1E60C9952
:105330000A9828AA02F070FC00287FF428A82A9C6A
:105340000DF1AC08FFF782B8012BBB467FF4F3A93F
:10535000FEF7ACBF0E9B089953F8042B554611601D
:105360000E93FFF7ABB8062B294628BF06230795F7
:105370000D952A4606936D4D0E940B930F91139144
:105380001091FEF7A9BF169B17981A19C8E90003D8
:10539000299B2A920133072B299300F3B68008F149
:1053A00008080029BFF66CAF4E421031DFF880913B
:1053B00080F297824146DDF828B0A84610240C9D63
:1053C00004E00831103E102E40F389820133103280
:1053D000072BC1E90094CDE92932F2DD28AA29463C
:1053E000584602F019FC00287EF4D1AFDDE92932DD
:1053F0002BA9E7E7079F144601362C44072ECDE979
:105400002964C8F80090C8F804507FF7EFAA46E472
:105410000E9B17F4007914BF53F8044B53F8044B58
:105420000E931CBF9146E4B2FEF76BBF0E9B1BF4BC
:10543000007914BF53F8044B53F8044B0E931CBF70
:105440009146E4B20123FEF75FBF0E9B17F400798B
:1054500014BF53F8044B53F8044B0E931CBF9146F2
:10546000E4B2A4E5454690463A460C464F4691467E
:1054700001333444072BCDE92934C8F80090C8F82B
:10548000046057DC08F10808FFF78BBB2D228DF86C
:105490008320FFF750B81C9B1B99ED1A1A4628462B
:1054A00002F088FB98F801300BB108F101082046A2
:1054B00049460A2200230026FBF7D4FD8FE60C990B
:1054C0000A9828AA02F0A8FB00287EF460AF22996F
:1054D0002A9C0DF1AC08BCE6129AAE18A6EB0B069E
:1054E000D51AAE42A8BF2E46FFF78EBB0E9B089979
:1054F00053F8042B0E9311805546FEF7DFBF44F39B
:10550000C0194B4664B2FEF7BFBE0C990A9828AA90
:1055100002F082FB00287EF43AAFDDE929322299BD
:105520000DF1AC083DE700BFAC9F0008A49F000848
:10553000C09F00080C990A9828AA02F06DFB002869
:105540007EF425AF2A9C0DF1AC08FFF72ABB062399
:10555000079356E4DDE91235EB189E421997B346DE
:10556000DDF82CA0109F90460C4628BF9B46FFF705
:105570001EBB229B1093DA1C02DB079A934204DDC8
:10558000023E26F02003069377E4109B129A934282
:10559000C0F2488119F0010F00F01182169A1344ED
:1055A0000B9319F4806F03D0109B002B00F3C7817D
:1055B0000B9B23EAE3730693672600230F93139351
:1055C000BCE42D2200238DF883200793FEF786BECE
:1055D00028AA5946504602F01FFB00287EF4D7AE99
:1055E00038782A992BAA06448AE50C990A9828AAA1
:1055F00002F012FB00287EF4CAAE2A9C0DF1AC0822
:10560000FFF7C6BA0C990A9828AA02F005FB0028F1
:105610007EF4BDAE229B2A9C0DF1AC08FFF7DCBAEC
:105620000799019126A9049123A9039122A9029126
:1056300003210B9B0A9800915A4600F031FB037836
:10564000302B054600F0F181229B079AB94613449E
:105650000F9FEC180B99584600220023FCF740F8E6
:1056600010B12346FFF7FDBB269BA342BFF4F9AB65
:1056700030215A1C26921970269B9C42F9D8FFF7BC
:10568000F0BB079B9DF883200E9406930B93079025
:105690000F9013901090FEF71FBE229A1092002ACE
:1056A00040F3E081079909F001030B4340F0B78113
:1056B000109B0B93662619F4806F40F041810B9B81
:1056C00023EAE373069378E730238DF88430582378
:1056D0008DF88530079B632B47F0020400F3BF80F1
:1056E00000230D933BADDDE9141247F481730F9352
:1056F0001346002B2746C0F285800B9326F020032B
:10570000069300238B461D93612E00F04081412EAD
:105710007FF485AB22AA0B99584602F001FA0022C9
:105720004FF07F53FAF728FF02460B46CDE91023CE
:1057300000220023FBF7D4FF08B101232293AC4BD6
:105740000B93079BCDE912A6CDE91E78DDF82CA0BE
:10575000DDE9106703F1FF39AB46109506E0002242
:10576000002309F1FF39FBF7BBFFE8B9A14B002289
:1057700030463946FAF700FF0F460646FBF7F8FFBA
:105780000446FAF78FFE0B46024639463046FAF7D2
:105790003BFD1AF80430B9F1FF3FD8464D460BF8EF
:1057A000013B06460F46DAD130463946924BDDF8CA
:1057B00048A0139ECDF848800022A946DDF87C80E1
:1057C000109D1E9FCDE91001FBF7B2FF002855D1B7
:1057D000DDE91001884B0022FBF782FF08B1E107E9
:1057E0004CD44B46002B06DB01335B4430220BF8D4
:1057F000012B5B45FBD1ABEB0503B94612930F9F21
:10580000FFF731BB26F020030693DDE914349B46F5
:1058100004F100430B932D231D9375E70023079399
:10582000FEF796BC129B169A9A18109B0B92002BAF
:1058300040F3098167263EE70C990A9828AA02F0EE
:10584000EBF900287EF4A3AD229D129B2A9C5D1BE0
:105850000DF1AC08FFF7D8B9079BEC18FAE60A98E7
:10586000591C01F0F7FA0546002800F026810D903A
:1058700039E730238DF88430782329E7129B26936B
:105880000B9B1BF8012CD97B8A425B4609D1302047
:1058900003F8010C269B5A1E269213F8012C914204
:1058A000F6D0392A0BBF0B9A0132927AD2B203F8A2
:1058B000012CA0E707990B9B0A984C1C26A9049180
:1058C00023A9039122A9029102215A460194009131
:1058D00000F0E6F90546B9462C440F9FBAE6454666
:1058E000884601333244072BCDE92932C8F80090AD
:1058F000C8F804607FF7C2AC0C990A9828AA02F095
:105900008BF900287EF443ADDDE929320DF1AC08B6
:10591000B6E4079B002B08BF0123079347F480736D
:105920000F93159B002BC0F2B180DDF850B00D90A5
:105930000B931D90FFF77ABA00230D9365E7672656
:1059400019990B78FF2B00F0B2800024109A2046A2
:1059500003E001300131FF2B08D0934206DAD21A5E
:105960004B78002BF5D10B780134F4E719911092A4
:1059700013900F940F9A139B1C9913440B9A01FBDD
:1059800003230B9323EAE3730693FFF7D7BA22AA04
:105990000B99584602F0C4F800224FF07F53FAF7F3
:1059A000EBFD02460B46CDE9102300220023FBF756
:1059B00097FE08B101232293104B0B93C1E6109B75
:1059C0000B93EEE5002963D130228DF892200DF182
:1059D0009302303302F8013B24ABD31A1A93FFF73A
:1059E00096BA06F10F02D2B20121FFF74FBA00BFFB
:1059F000909F0008000030400000E03F7C9F0008BE
:105A0000159B384D002BB4BF2D229DF88320364BBB
:105A1000B8BF8DF8832027F08007FEF790BD169B56
:105A2000D31819440B91662645E60B995846002277
:105A30000023FBF755FE00287FF406AE079BC3F159
:105A40000103229301E6C3F101031A4422EAE2733F
:105A50000B9206936726B0E519F0010F3FF462AA96
:105A6000FFF75CBA079A09F0010959EA020304D169
:105A70000123069366260B939FE5169B01331A4478
:105A800022EAE2730B920693662696E50D90BCE639
:105A90000DF192029DE70E9B9AF80160924653F831
:105AA000042B0E9342EAE2720792FEF74FBB0023EB
:105AB0000F9313935EE7079C0DE70C998B8943F0D6
:105AC000400213468A81FEF76ABC02231A93FFF74D
:105AD0001EBA0A9A0C2313604FF0FF330893FEF7A7
:105AE00065BC00BF749F0008789F000810B51A4C71
